{
    "_format": "hh-sol-artifact-1",
    "contractName": "TodoContract",
    "sourceName": "contracts/TodoContract.sol",
    "abi": [
        {
            "anonymous": false,
            "inputs": [
                {
                    "indexed": false,
                    "internalType": "address",
                    "name": "reciever",
                    "type": "address"
                },
                {
                    "indexed": false,
                    "internalType": "uint256",
                    "name": "todoId",
                    "type": "uint256"
                }
            ],
            "name": "AddToDo",
            "type": "event"
        },
        {
            "anonymous": false,
            "inputs": [
                {
                    "indexed": false,
                    "internalType": "uint256",
                    "name": "todoId",
                    "type": "uint256"
                },
                {
                    "indexed": false,
                    "internalType": "bool",
                    "name": "isDeleted",
                    "type": "bool"
                }
            ],
            "name": "DeleteToDo",
            "type": "event"
        },
        {
            "inputs": [
                {
                    "internalType": "string",
                    "name": "todoText",
                    "type": "string"
                },
                {
                    "internalType": "bool",
                    "name": "isDeleted",
                    "type": "bool"
                }
            ],
            "name": "addTodo",
            "outputs": [],
            "stateMutability": "nonpayable",
            "type": "function"
        },
        {
            "inputs": [
                {
                    "internalType": "uint256",
                    "name": "todoId",
                    "type": "uint256"
                },
                {
                    "internalType": "bool",
                    "name": "isDeleted",
                    "type": "bool"
                }
            ],
            "name": "deletTodo",
            "outputs": [],
            "stateMutability": "nonpayable",
            "type": "function"
        },
        {
            "inputs": [],
            "name": "getMyTodos",
            "outputs": [
                {
                    "components": [
                        {
                            "internalType": "uint256",
                            "name": "id",
                            "type": "uint256"
                        },
                        {
                            "internalType": "string",
                            "name": "desc",
                            "type": "string"
                        },
                        {
                            "internalType": "bool",
                            "name": "isDeleted",
                            "type": "bool"
                        }
                    ],
                    "internalType": "struct TodoContract.Todo[]",
                    "name": "",
                    "type": "tuple[]"
                }
            ],
            "stateMutability": "view",
            "type": "function"
        }
    ],
    "bytecode": "0x608060405234801561001057600080fd5b50610e59806100206000396000f3fe608060405234801561001057600080fd5b50600436106100415760003560e01c806334fbb7271461004657806345cd475914610062578063a0cc2a5614610080575b600080fd5b610060600480360381019061005b919061063b565b61009c565b005b61006a61017d565b604051610077919061083b565b60405180910390f35b61009a60048036038101906100959190610992565b610473565b005b3373ffffffffffffffffffffffffffffffffffffffff166001600084815260200190815260200160002060009054906101000a900473ffffffffffffffffffffffffffffffffffffffff1673ffffffffffffffffffffffffffffffffffffffff1603610179578060008381548110610117576101166109ee565b5b906000526020600020906003020160020160006101000a81548160ff0219169083151502179055507f5e1ae899c7e7f9134b72322ae375cfcfa34df6db0b623e052f2de2799451cf7f8282604051610170929190610a3b565b60405180910390a15b5050565b60606000808054905067ffffffffffffffff81111561019f5761019e610867565b5b6040519080825280602002602001820160405280156101d857816020015b6101c5610596565b8152602001906001900390816101bd5790505b5090506000805b6000805490508110156103b9573373ffffffffffffffffffffffffffffffffffffffff166001600083815260200190815260200160002060009054906101000a900473ffffffffffffffffffffffffffffffffffffffff1673ffffffffffffffffffffffffffffffffffffffff161480156102905750600015156000828154811061026d5761026c6109ee565b5b906000526020600020906003020160020160009054906101000a900460ff161515145b156103a657600081815481106102a9576102a86109ee565b5b9060005260206000209060030201604051806060016040529081600082015481526020016001820180546102dc90610a93565b80601f016020809104026020016040519081016040528092919081815260200182805461030890610a93565b80156103555780601f1061032a57610100808354040283529160200191610355565b820191906000526020600020905b81548152906001019060200180831161033857829003601f168201915b505050505081526020016002820160009054906101000a900460ff16151515158152505083838151811061038c5761038b6109ee565b5b602002602001018190525081806103a290610af3565b9250505b80806103b190610af3565b9150506101df565b5060008167ffffffffffffffff8111156103d6576103d5610867565b5b60405190808252806020026020018201604052801561040f57816020015b6103fc610596565b8152602001906001900390816103f45790505b50905060005b82811015610469578381815181106104305761042f6109ee565b5b602002602001015182828151811061044b5761044a6109ee565b5b6020026020010181905250808061046190610af3565b915050610415565b5080935050505090565b6000808054905090506000604051806060016040528083815260200185815260200184151581525090806001815401808255809150506001900390600052602060002090600302016000909190919091506000820151816000015560208201518160010190816104e39190610ce7565b5060408201518160020160006101000a81548160ff0219169083151502179055505050336001600083815260200190815260200160002060006101000a81548173ffffffffffffffffffffffffffffffffffffffff021916908373ffffffffffffffffffffffffffffffffffffffff1602179055507f56b0a234297cdc2bf683f9f386b7c703fe7ccd139df0012b4fb9dfb466e7dc423382604051610589929190610dfa565b60405180910390a1505050565b604051806060016040528060008152602001606081526020016000151581525090565b6000604051905090565b600080fd5b600080fd5b6000819050919050565b6105e0816105cd565b81146105eb57600080fd5b50565b6000813590506105fd816105d7565b92915050565b60008115159050919050565b61061881610603565b811461062357600080fd5b50565b6000813590506106358161060f565b92915050565b60008060408385031215610652576106516105c3565b5b6000610660858286016105ee565b925050602061067185828601610626565b9150509250929050565b600081519050919050565b600082825260208201905092915050565b6000819050602082019050919050565b6106b0816105cd565b82525050565b600081519050919050565b600082825260208201905092915050565b60005b838110156106f05780820151818401526020810190506106d5565b60008484015250505050565b6000601f19601f8301169050919050565b6000610718826106b6565b61072281856106c1565b93506107328185602086016106d2565b61073b816106fc565b840191505092915050565b61074f81610603565b82525050565b600060608301600083015161076d60008601826106a7565b5060208301518482036020860152610785828261070d565b915050604083015161079a6040860182610746565b508091505092915050565b60006107b18383610755565b905092915050565b6000602082019050919050565b60006107d18261067b565b6107db8185610686565b9350836020820285016107ed85610697565b8060005b85811015610829578484038952815161080a85826107a5565b9450610815836107b9565b925060208a019950506001810190506107f1565b50829750879550505050505092915050565b6000602082019050818103600083015261085581846107c6565b905092915050565b600080fd5b600080fd5b7f4e487b7100000000000000000000000000000000000000000000000000000000600052604160045260246000fd5b61089f826106fc565b810181811067ffffffffffffffff821117156108be576108bd610867565b5b80604052505050565b60006108d16105b9565b90506108dd8282610896565b919050565b600067ffffffffffffffff8211156108fd576108fc610867565b5b610906826106fc565b9050602081019050919050565b82818337600083830152505050565b6000610935610930846108e2565b6108c7565b90508281526020810184848401111561095157610950610862565b5b61095c848285610913565b509392505050565b600082601f8301126109795761097861085d565b5b8135610989848260208601610922565b91505092915050565b600080604083850312156109a9576109a86105c3565b5b600083013567ffffffffffffffff8111156109c7576109c66105c8565b5b6109d385828601610964565b92505060206109e485828601610626565b9150509250929050565b7f4e487b7100000000000000000000000000000000000000000000000000000000600052603260045260246000fd5b610a26816105cd565b82525050565b610a3581610603565b82525050565b6000604082019050610a506000830185610a1d565b610a5d6020830184610a2c565b9392505050565b7f4e487b7100000000000000000000000000000000000000000000000000000000600052602260045260246000fd5b60006002820490506001821680610aab57607f821691505b602082108103610abe57610abd610a64565b5b50919050565b7f4e487b7100000000000000000000000000000000000000000000000000000000600052601160045260246000fd5b6000610afe826105cd565b91507fffffffffffffffffffffffffffffffffffffffffffffffffffffffffffffffff8203610b3057610b2f610ac4565b5b600182019050919050565b60008190508160005260206000209050919050565b60006020601f8301049050919050565b600082821b905092915050565b600060088302610b9d7fffffffffffffffffffffffffffffffffffffffffffffffffffffffffffffffff82610b60565b610ba78683610b60565b95508019841693508086168417925050509392505050565b6000819050919050565b6000610be4610bdf610bda846105cd565b610bbf565b6105cd565b9050919050565b6000819050919050565b610bfe83610bc9565b610c12610c0a82610beb565b848454610b6d565b825550505050565b600090565b610c27610c1a565b610c32818484610bf5565b505050565b5b81811015610c5657610c4b600082610c1f565b600181019050610c38565b5050565b601f821115610c9b57610c6c81610b3b565b610c7584610b50565b81016020851015610c84578190505b610c98610c9085610b50565b830182610c37565b50505b505050565b600082821c905092915050565b6000610cbe60001984600802610ca0565b1980831691505092915050565b6000610cd78383610cad565b9150826002028217905092915050565b610cf0826106b6565b67ffffffffffffffff811115610d0957610d08610867565b5b610d138254610a93565b610d1e828285610c5a565b600060209050601f831160018114610d515760008415610d3f578287015190505b610d498582610ccb565b865550610db1565b601f198416610d5f86610b3b565b60005b82811015610d8757848901518255600182019150602085019450602081019050610d62565b86831015610da45784890151610da0601f891682610cad565b8355505b6001600288020188555050505b505050505050565b600073ffffffffffffffffffffffffffffffffffffffff82169050919050565b6000610de482610db9565b9050919050565b610df481610dd9565b82525050565b6000604082019050610e0f6000830185610deb565b610e1c6020830184610a1d565b939250505056fea2646970667358221220e8b784c0237cf1418fa975710b3a9f022a6cacb7c174240f4a48b2b208685e6464736f6c63430008110033",
    "linkReferences": {},
    "deployedLinkReferences": {}
}